:100000000C943D000C949E070C94FB080C94FB0888
:100010000C94FB080C94FB080C94FB080C94FB0854
:100020000C94FB080C94FB080C94FB080C94FB0844
:100030000C94FB080C94FB080C94FB080C94FB0834
:100040000C94FB080C94FB080C94FB080C94FB0824
:100050000C94FB08B701C201CD01D801E301EE0108
:10006000F90104022E02390244024F025A026502CB
:1000700070027B020060007E800011241FBECFE56D
:10008000D8E0DEBFCDBFE4E7F0E040E017C0B591B7
:10009000A59135912591059107FD0CC0959185910C
:1000A000EF01F92FE82F05900D92A217B307D9F7AA
:1000B000FE0104C01D92A217B307E1F7E937F40768
:0E00C00031F70E94F8080C94E208F894FFCF84
:1000CE00CF93DF9300D000D000D0CDB7DEB74983F9
:1000DE005A836B837C838D839E83413009F4EDC0FC
:1000EE0028F0423009F476C081E0FCC08B8181306B
:1000FE00B1F030F0823011F1833009F445C0DFC029
:10010E0083B78F7B83BF83B7877F83BF8D8181301A
:10011E0009F0D7C089B7816089BF80E0E3C083B79B
:10012E008F7B83BF83B7886083BF8D81813009F059
:10013E00CAC089B7826089BF80E0D4C083B78064AB
:10014E0083BF83B7886083BF8E81811108C083B758
:10015E008F7E83BF83B78F7D83BF80E0C3C0813026
:10016E0041F483B78F7E83BF83B7806283BF80E005
:10017E00B9C0813009F0A9C083B7806283BF83B74D
:10018E00806183BF80E0AEC083B7806483BF83B7D6
:10019E00877F83BF8E81811108C083B78F7E83BF17
:1001AE0083B78F7D83BF80E09DC0813041F483B7DC
:1001BE008F7E83BF83B7806283BF80E093C0813020
:1001CE0009F085C083B7806283BF83B7806183BF28
:1001DE0080E088C08B818130B1F030F0823011F137
:1001EE00833009F445C075C085B58F7B85BD85B557
:1001FE00877F85BD8D81813009F06DC089B78064A0
:10020E0089BF80E06FC085B58F7B85BD85B5886061
:10021E0085BD8D81813009F060C089B7806889BF46
:10022E0080E060C085B5806485BD85B5886085BD7C
:10023E008E81811108C085B58F7E85BD85B58F7D78
:10024E0085BD80E04FC0813041F485B58F7E85BD80
:10025E0085B5806285BD80E045C0813009F03FC024
:10026E0085B5806285BD85B5806185BD80E03AC06B
:10027E0085B5806485BD85B5877F85BD8E818111ED
:10028E0008C085B58F7E85BD85B58F7D85BD80E027
:10029E0029C0813041F485B58F7E85BD85B58062DC
:1002AE0085BD80E01FC08130E1F485B5806285BDDB
:1002BE0085B5806185BD80E015C080E013C082E009
:1002CE0011C080E00FC080E00DC086E00BC086E05C
:1002DE0009C082E007C080E005C080E003C086E070
:1002EE0001C086E026960FB6F894DEBF0FBECDBFD6
:0602FE00DF91CF9108958D
:10030400CF93DF9300D000D000D0CDB7DEB74983C0
:100314005A836B837C838D839E83413009F4F4C0BC
:1003240028F0423009F479C081E0F7C08B81811153
:1003340003C0209522BF0DC0813019F412BE2CBF1A
:1003440008C0833011F42CBF04C0823009F0DEC031
:100354002CBFEC818E2F90E08830910508F0D8C036
:10036400FC01E65DFF4F0C94ED0883B78E7F83BFDD
:1003740083B78D7F83BF83B78B7F83BF80E0CDC07E
:1003840083B7816083BF83B78D7F83BF83B78B7F40
:1003940083BF80E0C2C083B78E7F83BF83B7826090
:1003A40083BF83B78E7F83BF80E0B7C083B781608C
:1003B40083BF83B7826083BF83B78B7F83BF80E0B3
:1003C400ACC083B78E7F83BF83B78D7F83BF83B772
:1003D400846083BF80E0A1C083B7816083BF83B79B
:1003E4008D7F83BF83B7846083BF80E096C083B76B
:1003F4008E7F83BF83B7826083BF83B7846083BFEC
:1004040080E08BC083B7816083BF83B7826083BF82
:1004140083B7846083BF80E080C08B81811103C077
:10042400209524BD0DC0813019F414BC23BD08C02F
:10043400833011F423BD04C0823009F06BC023BDA6
:10044400EC818E2F90E08830910508F065C0FC01A6
:10045400EE5CFF4F0C94ED0885B58E7F85BD85B5A8
:100464008D7F85BD85B58B7F85BD80E056C085B504
:10047400816085BD85B58D7F85BD85B58B7F85BD47
:1004840080E04BC085B58E7F85BD85B5826085BD16
:1004940085B58B7F85BD80E040C085B5816085BD15
:1004A40085B5826085BD85B58B7F85BD80E035C00F
:1004B40085B58E7F85BD85B58D7F85BD85B5846009
:1004C40085BD80E02AC085B5816085BD85B58D7FF9
:1004D40085BD85B5846085BD80E01FC085B58E7FF0
:1004E40085BD85B5826085BD85B5846085BD80E0A8
:1004F40014C085B5816085BD85B5826085BD85B52F
:10050400846085BD80E009C080E007C083E005C049
:1005140084E003C083E001C084E026960FB6F8941B
:0C052400DEBF0FBECDBFDF91CF91089568
:10053000109268001092600082E08093750083E062
:1005400080936100E2E6F0E0808387E08183609140
:10055000620070916300809164000E949D08E2E750
:10056000F0E01082118260917200709173008091AE
:1005700074000E949D0881110E94CA08EFE6F0E015
:10058000108281E0818360916F0070917000809192
:1005900071000E949D0881110E94CA08E5E6F0E002
:1005A000108282E081836091650070916600809185
:1005B00067000E949D0881110E94CA08ECE6F0E0E5
:1005C00081E08083118260916C0070916D00809158
:1005D0006E000E949D0881110E94CA08E9E6F0E0C1
:1005E00081E0808381836091690070916A008091CD
:1005F0006B000E949D0881110E94CA08E6E7F0E0A6
:1006000081E0808382E08183609176007091770041
:10061000809178000E949D0881110E94CA08E9E734
:10062000F0E083E0482F808382E0582F818313829B
:1006300081E0682F828370E080917D000E94DD045C
:1006400081110E94CA0860E080E00E94F8078111D1
:100650000E94CA0880E00E94620881110E94CA08B4
:0806600082E00E945B05089591
:10066800843091F1853009F45BC0833009F084C08F
:1006780081E080936E0010926B0010927800609178
:100688006C0070916D0080916E000E94B708811116
:100698000E94CA086091690070916A0080916B009D
:1006A8000E94B70881110E94CA0860917600709173
:1006B8007700809178000E94B70881110E94CA08CB
:1006C80083E080936100089510926E0081E080932A
:1006D8006B001092780060916C0070916D008091B1
:1006E8006E000E94B70881110E94CA0860916900D3
:1006F80070916A0080916B000E94B70881110E9476
:10070800CA086091760070917700809178000E9405
:10071800B70881110E94CA0884E080936100089597
:1007280010926E0010926B0081E0809378006091C7
:100738006C0070916D0080916E000E94B708811165
:100748000E94CA086091690070916A0080916B00EC
:100758000E94B70881110E94CA08609176007091C2
:100768007700809178000E94B70881110E94CA081A
:0E07780085E08093610008950E94CA080895EC
:10078600843008F07EC0683008F07DC0423008F042
:100796007CC04130C1F5813091F028F08230D9F02B
:1007A600833029F174C02BB381E090E002C0880F3A
:1007B600991F6A95E2F7822B8BBB80E0089528B3D8
:1007C60081E090E002C0880F991F6A95E2F7822BBC
:1007D60088BB80E0089525B381E090E002C0880FD1
:1007E600991F6A95E2F7822B85BB80E0089522B3B4
:1007F60081E090E002C0880F991F6A95E2F7822B8C
:1008060082BB80E00895411144C0813099F028F000
:100816008230E9F0833041F13EC02BB381E090E0B5
:1008260002C0880F991F6A95E2F7809582238BBBD9
:1008360080E0089528B381E090E002C0880F991FF8
:100846006A95E2F78095822388BB80E0089525B3F8
:1008560081E090E002C0880F991F6A95E2F78095C3
:10086600822385BB80E0089522B381E090E002C038
:10087600880F991F6A95E2F78095822382BB80E0F4
:10088600089582E0089581E0089583E0089580E068
:0A089600089580E0089580E00895C1
:1008A000843008F07EC0683008F07DC0423008F027
:1008B0007CC04130C1F5813091F028F08230D9F010
:1008C000833029F174C02AB381E090E002C0880F20
:1008D000991F6A95E2F7822B8ABB80E0089527B3BF
:1008E00081E090E002C0880F991F6A95E2F7822BA1
:1008F00087BB80E0089524B381E090E002C0880FB8
:10090000991F6A95E2F7822B84BB80E0089521B39A
:1009100081E090E002C0880F991F6A95E2F7822B70
:1009200081BB80E00895411144C0813099F028F0E6
:100930008230E9F0833041F13EC02AB381E090E09B
:1009400002C0880F991F6A95E2F7809582238ABBBF
:1009500080E0089527B381E090E002C0880F991FDE
:100960006A95E2F78095822387BB80E0089524B3DF
:1009700081E090E002C0880F991F6A95E2F78095A8
:10098000822384BB80E0089521B381E090E002C01F
:10099000880F991F6A95E2F78095822381BB80E0DA
:1009A000089582E0089581E0089584E0089580E04C
:0A09B000089580E0089580E00895A6
:1009BA00EF92FF920F931F93CF93DF9300D000D053
:1009CA000F92CDB7DEB7142F443008F048C0052F78
:1009DA00583008F046C0F62E81E0861708F443C066
:1009EA00E72E871708F441C0711106C0433021F47D
:1009FA004130E9F15330E9F140E0602F812F0E9444
:100A0A005004811138C04F2D602F812F0E94C303DB
:100A1A00811133C0E11033C00E94FD08133049F43C
:100A2A00023039F480E00E94CE07882351F186E033
:100A3A0031C0133049F4033039F481E00E94CE0703
:100A4A00882309F186E026C01130F9F40330F9F45D
:100A5A0082E00E94CE078823E1F086E01BC081E095
:100A6A0019C082E017C085E015C083E013C084E096
:100A7A0011C084E00FC086E00DC086E00BC080E0A4
:100A8A0009C080E007C080E005C086E003C086E0B8
:100A9A0001C080E00F900F900F900F900F90DF91A0
:0C0AAA00CF911F910F91FF90EF900895E5
:100AB600CF93813039F120F0823009F445C067C008
:100AC60081E080937400109271001092670060912B
:100AD600720070917300809174000E94B708609153
:100AE6006F0070917000809171000E94B70860914C
:100AF600650070916600809167000E94B7081092A9
:100B0600750047C010927400C1E0C0937100109246
:100B160067006091720070917300809174000E946A
:100B2600B70860916F0070917000809171000E940B
:100B3600B7086091650070916600809167000E9419
:100B4600B708C093750025C010927400109271000A
:100B560081E08093670060917200709173008091CC
:100B660074000E94B70860916F00709170008091C8
:100B760071000E94B70860916500709166008091CF
:100B860067000E94B70882E08093750002C00E9449
:060B9600CA08CF9108958A
:100B9C001F93CF93DF93CDB7DEB727970FB6F8949B
:100BAC00DEBF0FBECDBF4A835B836C837D838E8398
:100BBC009F8310E035C02FEF4A815B816C817D8172
:100BCC008E819F810E948201811128C019820DC0E3
:100BDC009E012F5F3F4F4A815B816C817D818E81AD
:100BEC009F810E946E06811119C08981882381F32F
:100BFC004A815B816C817D818E819F810E9444083A
:100C0C0081110CC04A815B816C817D818E819F81B9
:100C1C000E94FA06811102C01F5F02C087E003C068
:100C2C00103248F280E027960FB6F894DEBF0FBE64
:0A0C3C00CDBFDF91CF911F91089505
:100C4600DF92EF92FF920F931F93CF93DF938C0166
:100C5600EB01D42EFF24F394FC01F28260817181B2
:100C660082810E94B708FA82688179818A810E940E
:100C7600B70861E080E00E943A07E12CF12C1DC024
:100C8600F801928181E0911180E0F8018283608110
:100C9600718182810E94B7089A8181E0911180E07A
:100CA6008A83688179818A810E94B70861E080E041
:100CB6000E943A07FFEFEF1AFF0A8D2D90E0019789
:100CC600E816F906ECF2DF91CF911F910F91FF9094
:060CD600EF90DF9008958D
:100CDC00CF93DF9300D000D000D0CDB7DEB74983DF
:100CEC005A836B837C838D839E83413061F120F02A
:100CFC004230A1F081E02CC08B81811106C088B7F5
:100D0C008170F901808380E023C08130F1F488B7D1
:100D1C0086958170F901808380E01AC08B818111E6
:100D2C0008C088B786FB882780F9F901808380E0AA
:100D3C000FC0813061F488B7881F8827881FF9019C
:100D4C00808380E005C080E003C083E001C083E0C5
:100D5C0026960FB6F894DEBF0FBECDBFDF91CF91B4
:020D6C000895E8
:100D6E008091750081110AC00E945B0585E00E948A
:100D7E00340365E080E00E943A071DC08150823046
:100D8E00C0F481E00E945B0584E00E94340345E0DC
:100D9E0069E670E08FE690E00E94230680E00E94F4
:100DAE005B0585E00E94340365E080E00E943A070F
:100DBE0002C00E94CA0881E00E945B0585E00E9485
:100DCE00340345E069E670E08FE690E00E9423066A
:100DDE0082E00E945B0583E00E9434031092600063
:060DEE0010926800089558
:100DF400CF93DF9300D000D000D0CDB7DEB74983C6
:100E04005A836B837C838D839E83413019F120F058
:100E1400423089F081E023C08B81811105C088B7FD
:100E2400816088BF80E01BC08130B1F488B78260E4
:100E340088BF80E014C08B81811105C088B78064AD
:100E440088BF80E00CC0813049F488B7806888BFCF
:100E540080E005C080E003C083E001C083E0269603
:100E64000FB6F894DEBF0FBECDBFDF91CF910895CA
:100E7400FF920F931F93CF93DF9300D000D000D045
:100E8400CDB7DEB7F62E89831B821A8285E08C8368
:100E940000E010E00CC049815A816B817C818D8116
:100EA4009E810E94CE05811109C00F5F1F4F8F2DB7
:100EB40090E0081719077CF380E001C083E02696D0
:100EC4000FB6F894DEBF0FBECDBFDF91CF911F9157
:060ED4000F91FF9008954C
:100EDA00FF920F931F93CF93DF93EC01F62E81E0DD
:100EEA008A83688179818A810E94B70861E080E0FB
:100EFA000E943A0700E010E010C09A8181E0911147
:100F0A0080E08A83688179818A810E94B70861E0DA
:100F1A0080E00E943A070F5F1F4F8F2D90E00197E4
:100F2A000817190754F3DF91CF911F910F91FF9082
:020F3A00089518
:100F3C001F920F920FB60F9211242F933F934F9342
:100F4C005F936F937F938F939F93AF93BF93EF9325
:100F5C00FF938091680081110AC081E0809360004A
:100F6C008093680080E00E9480080E94B706FF9181
:100F7C00EF91BF91AF919F918F917F916F915F9105
:100F8C004F913F912F910F900FBE0F901F9018957E
:100F9C00833020F5813079F018F08230B9F020C020
:100FAC0085B7826085BF85B78E7F85BF8BB7806420
:100FBC008BBF80E0089585B7826085BF85B78E7F33
:100FCC0085BF8BB780688BBF80E0089584B7806441
:100FDC0084BF8BB78F7D8BBF80E0089581E008952F
:040FEC0080E0089504
:100FF000CF93DF9300D000D000D0CDB7DEB78330E1
:1010000090F4623090F4613009F47894962F482F70
:1010100050E060E075E0892F9E810E946700882380
:1010200031F083E005C081E003C082E001C080E0D0
:1010300026960FB6F894DEBF0FBECDBFDF91CF91DD
:02104000089511
:1010420080917500813059F098F08230C9F465E0E2
:1010520080E00E943A0781E00E945B05089565E006
:101062008FE690E00E946D0780E00E945B05089584
:1010720065E080E00E943A0782E00E945B050895E5
:061082000E94CA08089557
:10108800CF93DF9300D000D000D0CDB7DEB741308A
:1010980059F020F0423029F081E007C012BE80E00C
:1010A80004C014BC80E001C080E026960FB6F89416
:0C10B800DEBF0FBECDBFDF91CF910895C9
:1010C400CF93DF9300D000D000D0CDB7DEB72FEFA1
:1010D400482F50E060E075E08D819E810E9482017E
:1010E400882311F083E001C080E026960FB6F894BF
:0C10F400DEBF0FBECDBFDF91CF9108958D
:10110000CF93DF9300D000D000D0CDB7DEB7482F0B
:101110005A816B817C818D819E810E944408882345
:1011200011F083E001C080E026960FB6F894DEBF90
:0A1130000FBECDBFDF91CF910895EF
:10113A00CF93DF93783080F4643080F4C72FD62FB2
:10114A0041E0672F8D2F0E94500440E06C2F8D2FB5
:10115A000E94C30380E003C081E001C082E0DF9106
:04116A00CF91089584
:10116E00783058F4643058F4823058F4482F862F73
:10117E00672F0E94C30380E0089581E0089582E006
:06118E00089583E00895BE
:1011940081E08093640060916200709163008091AB
:0811A40064000E94B7080895E1
:1011AC0080916000811103C00E9421080895813054
:0811BC0011F40E94B70608952A
:1011C400EC010E9402090E940109CE010E94030958
:0611D400CE010E94FF089D
:0C11DA00EE0FFF1F0590F491E02D09942A
:0A11E6000E9498020E94D608FDCF77
:0611F0000E94F3080895BF
:0411F6000C94000055
:0411FA007894089548
:0411FE000E946500E6
:0212020008954D
:0212040008954B
:02120600089549
:00000001FF
